{
  "address": "0x6B7C5306B60c40f3E47E48E21628c0c695326EBd",
  "abi": [
    {
      "inputs": [
        {
          "internalType": "address",
          "name": "vrfCoordinatorV2",
          "type": "address"
        },
        {
          "internalType": "uint256",
          "name": "enteranceFee",
          "type": "uint256"
        },
        {
          "internalType": "bytes32",
          "name": "gasLane",
          "type": "bytes32"
        },
        {
          "internalType": "uint64",
          "name": "subscriptionID",
          "type": "uint64"
        },
        {
          "internalType": "uint32",
          "name": "callBackGasLimit",
          "type": "uint32"
        },
        {
          "internalType": "uint256",
          "name": "interval",
          "type": "uint256"
        }
      ],
      "stateMutability": "nonpayable",
      "type": "constructor"
    },
    {
      "inputs": [
        {
          "internalType": "address",
          "name": "have",
          "type": "address"
        },
        {
          "internalType": "address",
          "name": "want",
          "type": "address"
        }
      ],
      "name": "OnlyCoordinatorCanFulfill",
      "type": "error"
    },
    {
      "inputs": [],
      "name": "Raffle__NotEnoughETHEntered",
      "type": "error"
    },
    {
      "inputs": [],
      "name": "Raffle__TransferFailed",
      "type": "error"
    },
    {
      "inputs": [
        {
          "internalType": "uint256",
          "name": "currentBalance",
          "type": "uint256"
        },
        {
          "internalType": "uint256",
          "name": "playernum",
          "type": "uint256"
        },
        {
          "internalType": "uint256",
          "name": "S_raffleState",
          "type": "uint256"
        }
      ],
      "name": "Raffle__upkeepnotneeded",
      "type": "error"
    },
    {
      "inputs": [],
      "name": "Raffle_notOpen",
      "type": "error"
    },
    {
      "anonymous": false,
      "inputs": [
        {
          "indexed": true,
          "internalType": "address",
          "name": "lastWinner",
          "type": "address"
        }
      ],
      "name": "LastWinner",
      "type": "event"
    },
    {
      "anonymous": false,
      "inputs": [
        {
          "indexed": true,
          "internalType": "address",
          "name": "player",
          "type": "address"
        }
      ],
      "name": "RaffleEnter",
      "type": "event"
    },
    {
      "anonymous": false,
      "inputs": [
        {
          "indexed": true,
          "internalType": "uint256",
          "name": "requestId",
          "type": "uint256"
        }
      ],
      "name": "RequestedRandomWinner",
      "type": "event"
    },
    {
      "inputs": [
        {
          "internalType": "bytes",
          "name": "",
          "type": "bytes"
        }
      ],
      "name": "checkUpkeep",
      "outputs": [
        {
          "internalType": "bool",
          "name": "upkeepNeeded",
          "type": "bool"
        },
        {
          "internalType": "bytes",
          "name": "",
          "type": "bytes"
        }
      ],
      "stateMutability": "nonpayable",
      "type": "function"
    },
    {
      "inputs": [],
      "name": "enterRaffle",
      "outputs": [],
      "stateMutability": "payable",
      "type": "function"
    },
    {
      "inputs": [],
      "name": "getEnterenceFee",
      "outputs": [
        {
          "internalType": "uint256",
          "name": "",
          "type": "uint256"
        }
      ],
      "stateMutability": "view",
      "type": "function"
    },
    {
      "inputs": [],
      "name": "getInterval",
      "outputs": [
        {
          "internalType": "uint256",
          "name": "interval",
          "type": "uint256"
        }
      ],
      "stateMutability": "view",
      "type": "function"
    },
    {
      "inputs": [],
      "name": "getLastTimeStamp",
      "outputs": [
        {
          "internalType": "uint256",
          "name": "lastTime",
          "type": "uint256"
        }
      ],
      "stateMutability": "view",
      "type": "function"
    },
    {
      "inputs": [],
      "name": "getNumberOfPlayers",
      "outputs": [
        {
          "internalType": "uint256",
          "name": "players",
          "type": "uint256"
        }
      ],
      "stateMutability": "view",
      "type": "function"
    },
    {
      "inputs": [],
      "name": "getNumberOfWords",
      "outputs": [
        {
          "internalType": "uint256",
          "name": "NUM",
          "type": "uint256"
        }
      ],
      "stateMutability": "pure",
      "type": "function"
    },
    {
      "inputs": [
        {
          "internalType": "uint256",
          "name": "index",
          "type": "uint256"
        }
      ],
      "name": "getPlayer",
      "outputs": [
        {
          "internalType": "address",
          "name": "",
          "type": "address"
        }
      ],
      "stateMutability": "view",
      "type": "function"
    },
    {
      "inputs": [],
      "name": "getRaffleState",
      "outputs": [
        {
          "internalType": "enum Raffle.RaffleState",
          "name": "state",
          "type": "uint8"
        }
      ],
      "stateMutability": "view",
      "type": "function"
    },
    {
      "inputs": [],
      "name": "getRecentWinner",
      "outputs": [
        {
          "internalType": "address",
          "name": "",
          "type": "address"
        }
      ],
      "stateMutability": "view",
      "type": "function"
    },
    {
      "inputs": [],
      "name": "getRequestConfirmation",
      "outputs": [
        {
          "internalType": "uint16",
          "name": "requestConfirmations",
          "type": "uint16"
        }
      ],
      "stateMutability": "pure",
      "type": "function"
    },
    {
      "inputs": [
        {
          "internalType": "bytes",
          "name": "",
          "type": "bytes"
        }
      ],
      "name": "performUpkeep",
      "outputs": [],
      "stateMutability": "nonpayable",
      "type": "function"
    },
    {
      "inputs": [
        {
          "internalType": "uint256",
          "name": "requestId",
          "type": "uint256"
        },
        {
          "internalType": "uint256[]",
          "name": "randomWords",
          "type": "uint256[]"
        }
      ],
      "name": "rawFulfillRandomWords",
      "outputs": [],
      "stateMutability": "nonpayable",
      "type": "function"
    }
  ],
  "transactionHash": "0x87c2b79167763da495672a42a72bf20f3e3bbf53d76051fa24688575150f3c7e",
  "args": [
    "0x2Ca8E0C643bDe4C2E08ab1fA0da3401AdAD7734D",
    "100000000000000000",
    "0x79d3d8832d904592c0bf9818b621522c988bb8b0c05cdc3b15aea1b6e8db0c15",
    "984",
    "500000",
    "30"
  ],
  "numDeployments": 3,
  "solcInputHash": "ded2639886954d2fa703aab7659519c5",
  "bytecode": "0x6101606040523480156200001257600080fd5b506040516200183338038062001833833981810160405281019062000038919062000294565b858073ffffffffffffffffffffffffffffffffffffffff1660808173ffffffffffffffffffffffffffffffffffffffff1681525050506000600260006101000a81548160ff0219169083600181111562000097576200009662000330565b5b02179055508360c081815250508267ffffffffffffffff1660e08167ffffffffffffffff16815250508461014081815250508163ffffffff166101008163ffffffff16815250508573ffffffffffffffffffffffffffffffffffffffff1660a08173ffffffffffffffffffffffffffffffffffffffff1681525050426001819055508061012081815250505050505050506200035f565b600080fd5b600073ffffffffffffffffffffffffffffffffffffffff82169050919050565b6000620001608262000133565b9050919050565b620001728162000153565b81146200017e57600080fd5b50565b600081519050620001928162000167565b92915050565b6000819050919050565b620001ad8162000198565b8114620001b957600080fd5b50565b600081519050620001cd81620001a2565b92915050565b6000819050919050565b620001e881620001d3565b8114620001f457600080fd5b50565b6000815190506200020881620001dd565b92915050565b600067ffffffffffffffff82169050919050565b6200022d816200020e565b81146200023957600080fd5b50565b6000815190506200024d8162000222565b92915050565b600063ffffffff82169050919050565b6200026e8162000253565b81146200027a57600080fd5b50565b6000815190506200028e8162000263565b92915050565b60008060008060008060c08789031215620002b457620002b36200012e565b5b6000620002c489828a0162000181565b9650506020620002d789828a01620001bc565b9550506040620002ea89828a01620001f7565b9450506060620002fd89828a016200023c565b93505060806200031089828a016200027d565b92505060a06200032389828a01620001bc565b9150509295509295509295565b7f4e487b7100000000000000000000000000000000000000000000000000000000600052602160045260246000fd5b60805160a05160c05160e051610100516101205161014051611464620003cf600039600081816103cf015261084c0152600081816107a70152610824015260006106740152600061065101526000610630015260006105f401526000818161030f015261036301526114646000f3fe6080604052600436106100c25760003560e01c80636f9d9c841161007f578063c1c244e811610059578063c1c244e814610238578063ca6a9ef814610263578063e55ae4e81461028e578063fd6673f5146102cb576100c2565b80636f9d9c84146101b757806391ad27b4146101e2578063b675400d1461020d576100c2565b8063115cbaf5146100c75780631fe543e3146100f25780632cfcc5391461011b5780634585e33b14610125578063473f1ddc1461014e5780636e04ff0d14610179575b600080fd5b3480156100d357600080fd5b506100dc6102f6565b6040516100e99190610c28565b60405180910390f35b3480156100fe57600080fd5b5061011960048036038101906101149190610de6565b61030d565b005b6101236103cd565b005b34801561013157600080fd5b5061014c60048036038101906101479190610e9d565b61053c565b005b34801561015a57600080fd5b5061016361073c565b6040516101709190610f2b565b60405180910390f35b34801561018557600080fd5b506101a0600480360381019061019b9190610ffb565b610765565b6040516101ae9291906110e7565b60405180910390f35b3480156101c357600080fd5b506101cc610811565b6040516101d99190611126565b60405180910390f35b3480156101ee57600080fd5b506101f7610820565b6040516102049190611126565b60405180910390f35b34801561021957600080fd5b50610222610848565b60405161022f9190611126565b60405180910390f35b34801561024457600080fd5b5061024d610870565b60405161025a9190611126565b60405180910390f35b34801561026f57600080fd5b5061027861087a565b604051610285919061115e565b60405180910390f35b34801561029a57600080fd5b506102b560048036038101906102b09190611179565b610883565b6040516102c29190610f2b565b60405180910390f35b3480156102d757600080fd5b506102e06108cb565b6040516102ed9190611126565b60405180910390f35b6000600260009054906101000a900460ff16905090565b7f000000000000000000000000000000000000000000000000000000000000000073ffffffffffffffffffffffffffffffffffffffff163373ffffffffffffffffffffffffffffffffffffffff16146103bf57337f00000000000000000000000000000000000000000000000000000000000000006040517f1cf993f40000000000000000000000000000000000000000000000000000000081526004016103b69291906111a6565b60405180910390fd5b6103c982826108d8565b5050565b7f0000000000000000000000000000000000000000000000000000000000000000341015610427576040517fbd4e069500000000000000000000000000000000000000000000000000000000815260040160405180910390fd5b6000600181111561043b5761043a610bb1565b5b600260009054906101000a900460ff16600181111561045d5761045c610bb1565b5b14610494576040517fe09c865100000000000000000000000000000000000000000000000000000000815260040160405180910390fd5b6003339080600181540180825580915050600190039060005260206000200160009091909190916101000a81548173ffffffffffffffffffffffffffffffffffffffff021916908373ffffffffffffffffffffffffffffffffffffffff1602179055503373ffffffffffffffffffffffffffffffffffffffff167f0805e1d667bddb8a95f0f09880cf94f403fb596ce79928d9f29b74203ba284d460405160405180910390a2565b600061055660405180602001604052806000815250610765565b509050806105c55747600380549050600260009054906101000a900460ff16600181111561058757610586610bb1565b5b6040517f0abba1e50000000000000000000000000000000000000000000000000000000081526004016105bc939291906111cf565b60405180910390fd5b6001600260006101000a81548160ff021916908360018111156105eb576105ea610bb1565b5b021790555060007f000000000000000000000000000000000000000000000000000000000000000073ffffffffffffffffffffffffffffffffffffffff16635d3b1d307f00000000000000000000000000000000000000000000000000000000000000007f000000000000000000000000000000000000000000000000000000000000000060037f000000000000000000000000000000000000000000000000000000000000000060016040518663ffffffff1660e01b81526004016106b5959493929190611261565b602060405180830381600087803b1580156106cf57600080fd5b505af11580156106e3573d6000803e3d6000fd5b505050506040513d601f19601f8201168201806040525081019061070791906112c9565b9050807f1fe6c803a34f3487c47f1c0c9d1723f1d731ab15ae39e407f7aaa1396d4b0bea60405160405180910390a250505050565b60008060009054906101000a900473ffffffffffffffffffffffffffffffffffffffff16905090565b60006060600080600181111561077e5761077d610bb1565b5b600260009054906101000a900460ff1660018111156107a05761079f610bb1565b5b14905060007f0000000000000000000000000000000000000000000000000000000000000000600154426107d49190611325565b119050600080600380549050119050600080471190508380156107f45750825b80156107fd5750815b80156108065750805b955050505050915091565b6000600163ffffffff16905090565b60007f0000000000000000000000000000000000000000000000000000000000000000905090565b60007f0000000000000000000000000000000000000000000000000000000000000000905090565b6000600154905090565b60006003905090565b60006003828154811061089957610898611359565b5b9060005260206000200160009054906101000a900473ffffffffffffffffffffffffffffffffffffffff169050919050565b6000600380549050905090565b6000600380549050826000815181106108f4576108f3611359565b5b602002602001015161090691906113b7565b905060006003828154811061091e5761091d611359565b5b9060005260206000200160009054906101000a900473ffffffffffffffffffffffffffffffffffffffff169050806000806101000a81548173ffffffffffffffffffffffffffffffffffffffff021916908373ffffffffffffffffffffffffffffffffffffffff1602179055506000600260006101000a81548160ff021916908360018111156109b1576109b0610bb1565b5b0217905550600067ffffffffffffffff8111156109d1576109d0610ca3565b5b6040519080825280602002602001820160405280156109ff5781602001602082028036833780820191505090505b5060039080519060200190610a15929190610b0a565b504260018190555060008173ffffffffffffffffffffffffffffffffffffffff1647604051610a4390611419565b60006040518083038185875af1925050503d8060008114610a80576040519150601f19603f3d011682016040523d82523d6000602084013e610a85565b606091505b5050905080610ac0576040517fa1d04b3900000000000000000000000000000000000000000000000000000000815260040160405180910390fd5b8173ffffffffffffffffffffffffffffffffffffffff167fc6d7955ce231faa420f79a2b5f7be7618277a17ad83937aee7947929c5b921fe60405160405180910390a25050505050565b828054828255906000526020600020908101928215610b83579160200282015b82811115610b825782518260006101000a81548173ffffffffffffffffffffffffffffffffffffffff021916908373ffffffffffffffffffffffffffffffffffffffff16021790555091602001919060010190610b2a565b5b509050610b909190610b94565b5090565b5b80821115610bad576000816000905550600101610b95565b5090565b7f4e487b7100000000000000000000000000000000000000000000000000000000600052602160045260246000fd5b60028110610bf157610bf0610bb1565b5b50565b6000819050610c0282610be0565b919050565b6000610c1282610bf4565b9050919050565b610c2281610c07565b82525050565b6000602082019050610c3d6000830184610c19565b92915050565b6000604051905090565b600080fd5b600080fd5b6000819050919050565b610c6a81610c57565b8114610c7557600080fd5b50565b600081359050610c8781610c61565b92915050565b600080fd5b6000601f19601f8301169050919050565b7f4e487b7100000000000000000000000000000000000000000000000000000000600052604160045260246000fd5b610cdb82610c92565b810181811067ffffffffffffffff82111715610cfa57610cf9610ca3565b5b80604052505050565b6000610d0d610c43565b9050610d198282610cd2565b919050565b600067ffffffffffffffff821115610d3957610d38610ca3565b5b602082029050602081019050919050565b600080fd5b6000610d62610d5d84610d1e565b610d03565b90508083825260208201905060208402830185811115610d8557610d84610d4a565b5b835b81811015610dae5780610d9a8882610c78565b845260208401935050602081019050610d87565b5050509392505050565b600082601f830112610dcd57610dcc610c8d565b5b8135610ddd848260208601610d4f565b91505092915050565b60008060408385031215610dfd57610dfc610c4d565b5b6000610e0b85828601610c78565b925050602083013567ffffffffffffffff811115610e2c57610e2b610c52565b5b610e3885828601610db8565b9150509250929050565b600080fd5b60008083601f840112610e5d57610e5c610c8d565b5b8235905067ffffffffffffffff811115610e7a57610e79610e42565b5b602083019150836001820283011115610e9657610e95610d4a565b5b9250929050565b60008060208385031215610eb457610eb3610c4d565b5b600083013567ffffffffffffffff811115610ed257610ed1610c52565b5b610ede85828601610e47565b92509250509250929050565b600073ffffffffffffffffffffffffffffffffffffffff82169050919050565b6000610f1582610eea565b9050919050565b610f2581610f0a565b82525050565b6000602082019050610f406000830184610f1c565b92915050565b600080fd5b600067ffffffffffffffff821115610f6657610f65610ca3565b5b610f6f82610c92565b9050602081019050919050565b82818337600083830152505050565b6000610f9e610f9984610f4b565b610d03565b905082815260208101848484011115610fba57610fb9610f46565b5b610fc5848285610f7c565b509392505050565b600082601f830112610fe257610fe1610c8d565b5b8135610ff2848260208601610f8b565b91505092915050565b60006020828403121561101157611010610c4d565b5b600082013567ffffffffffffffff81111561102f5761102e610c52565b5b61103b84828501610fcd565b91505092915050565b60008115159050919050565b61105981611044565b82525050565b600081519050919050565b600082825260208201905092915050565b60005b8381101561109957808201518184015260208101905061107e565b838111156110a8576000848401525b50505050565b60006110b98261105f565b6110c3818561106a565b93506110d381856020860161107b565b6110dc81610c92565b840191505092915050565b60006040820190506110fc6000830185611050565b818103602083015261110e81846110ae565b90509392505050565b61112081610c57565b82525050565b600060208201905061113b6000830184611117565b92915050565b600061ffff82169050919050565b61115881611141565b82525050565b6000602082019050611173600083018461114f565b92915050565b60006020828403121561118f5761118e610c4d565b5b600061119d84828501610c78565b91505092915050565b60006040820190506111bb6000830185610f1c565b6111c86020830184610f1c565b9392505050565b60006060820190506111e46000830186611117565b6111f16020830185611117565b6111fe6040830184611117565b949350505050565b6000819050919050565b61121981611206565b82525050565b600067ffffffffffffffff82169050919050565b61123c8161121f565b82525050565b600063ffffffff82169050919050565b61125b81611242565b82525050565b600060a0820190506112766000830188611210565b6112836020830187611233565b611290604083018661114f565b61129d6060830185611252565b6112aa6080830184611252565b9695505050505050565b6000815190506112c381610c61565b92915050565b6000602082840312156112df576112de610c4d565b5b60006112ed848285016112b4565b91505092915050565b7f4e487b7100000000000000000000000000000000000000000000000000000000600052601160045260246000fd5b600061133082610c57565b915061133b83610c57565b92508282101561134e5761134d6112f6565b5b828203905092915050565b7f4e487b7100000000000000000000000000000000000000000000000000000000600052603260045260246000fd5b7f4e487b7100000000000000000000000000000000000000000000000000000000600052601260045260246000fd5b60006113c282610c57565b91506113cd83610c57565b9250826113dd576113dc611388565b5b828206905092915050565b600081905092915050565b50565b60006114036000836113e8565b915061140e826113f3565b600082019050919050565b6000611424826113f6565b915081905091905056fea2646970667358221220e2974e29a123a83f5931625ae8cac92107024eec5b41f075f244cb64f1a15a0264736f6c63430008090033",
  "devdoc": {
    "author": "Vishwanath Gugwad",
    "details": "This implements chainlink VRF v2 and chainlink keepers.",
    "kind": "dev",
    "methods": {},
    "title": "A sample Raffle contract",
    "version": 1
  },
  "userdoc": {
    "kind": "user",
    "methods": {
      "constructor": {
        "notice": "Functions "
      },
      "getEnterenceFee()": {
        "notice": "view //   pure functions  "
      }
    },
    "notice": "This contract is for creating untamperable decentralized smart contract",
    "version": 1
  },
  "storageLayout": {
    "storage": [
      {
        "astId": 248,
        "contract": "contracts/Raffle.sol:Raffle",
        "label": "s_recentWinner",
        "offset": 0,
        "slot": "0",
        "type": "t_address"
      },
      {
        "astId": 252,
        "contract": "contracts/Raffle.sol:Raffle",
        "label": "s_lastTimeStamp",
        "offset": 0,
        "slot": "1",
        "type": "t_uint256"
      },
      {
        "astId": 255,
        "contract": "contracts/Raffle.sol:Raffle",
        "label": "S_raffleState",
        "offset": 0,
        "slot": "2",
        "type": "t_enum(RaffleState)231"
      },
      {
        "astId": 260,
        "contract": "contracts/Raffle.sol:Raffle",
        "label": "s_players",
        "offset": 0,
        "slot": "3",
        "type": "t_array(t_address_payable)dyn_storage"
      }
    ],
    "types": {
      "t_address": {
        "encoding": "inplace",
        "label": "address",
        "numberOfBytes": "20"
      },
      "t_address_payable": {
        "encoding": "inplace",
        "label": "address payable",
        "numberOfBytes": "20"
      },
      "t_array(t_address_payable)dyn_storage": {
        "base": "t_address_payable",
        "encoding": "dynamic_array",
        "label": "address payable[]",
        "numberOfBytes": "32"
      },
      "t_enum(RaffleState)231": {
        "encoding": "inplace",
        "label": "enum Raffle.RaffleState",
        "numberOfBytes": "1"
      },
      "t_uint256": {
        "encoding": "inplace",
        "label": "uint256",
        "numberOfBytes": "32"
      }
    }
  }
}